{
  "contractName": "Router",
  "abi": [
    {
      "inputs": [
        {
          "internalType": "address",
          "name": "_factory",
          "type": "address"
        },
        {
          "internalType": "address",
          "name": "_WETH",
          "type": "address"
        }
      ],
      "stateMutability": "nonpayable",
      "type": "constructor"
    },
    {
      "inputs": [],
      "name": "WETH",
      "outputs": [
        {
          "internalType": "address",
          "name": "",
          "type": "address"
        }
      ],
      "stateMutability": "view",
      "type": "function"
    },
    {
      "inputs": [],
      "name": "factory",
      "outputs": [
        {
          "internalType": "address",
          "name": "",
          "type": "address"
        }
      ],
      "stateMutability": "view",
      "type": "function"
    },
    {
      "stateMutability": "payable",
      "type": "receive"
    },
    {
      "inputs": [
        {
          "internalType": "address",
          "name": "tokenA",
          "type": "address"
        },
        {
          "internalType": "address",
          "name": "tokenB",
          "type": "address"
        },
        {
          "internalType": "uint256",
          "name": "amountADesired",
          "type": "uint256"
        },
        {
          "internalType": "uint256",
          "name": "amountBDesired",
          "type": "uint256"
        },
        {
          "internalType": "uint256",
          "name": "amountAMin",
          "type": "uint256"
        },
        {
          "internalType": "uint256",
          "name": "amountBMin",
          "type": "uint256"
        },
        {
          "internalType": "address",
          "name": "to",
          "type": "address"
        },
        {
          "internalType": "uint256",
          "name": "deadline",
          "type": "uint256"
        }
      ],
      "name": "addLiquidity",
      "outputs": [
        {
          "internalType": "uint256",
          "name": "amountA",
          "type": "uint256"
        },
        {
          "internalType": "uint256",
          "name": "amountB",
          "type": "uint256"
        },
        {
          "internalType": "uint256",
          "name": "liquidity",
          "type": "uint256"
        }
      ],
      "stateMutability": "nonpayable",
      "type": "function"
    },
    {
      "inputs": [
        {
          "internalType": "address",
          "name": "token",
          "type": "address"
        },
        {
          "internalType": "uint256",
          "name": "amountTokenDesired",
          "type": "uint256"
        },
        {
          "internalType": "uint256",
          "name": "amountTokenMin",
          "type": "uint256"
        },
        {
          "internalType": "uint256",
          "name": "amountETHMin",
          "type": "uint256"
        },
        {
          "internalType": "address",
          "name": "to",
          "type": "address"
        },
        {
          "internalType": "uint256",
          "name": "deadline",
          "type": "uint256"
        }
      ],
      "name": "addLiquidityETH",
      "outputs": [
        {
          "internalType": "uint256",
          "name": "amountToken",
          "type": "uint256"
        },
        {
          "internalType": "uint256",
          "name": "amountETH",
          "type": "uint256"
        },
        {
          "internalType": "uint256",
          "name": "liquidity",
          "type": "uint256"
        }
      ],
      "stateMutability": "payable",
      "type": "function"
    },
    {
      "inputs": [
        {
          "internalType": "address",
          "name": "tokenA",
          "type": "address"
        },
        {
          "internalType": "address",
          "name": "tokenB",
          "type": "address"
        },
        {
          "internalType": "uint256",
          "name": "liquidity",
          "type": "uint256"
        },
        {
          "internalType": "uint256",
          "name": "amountAMin",
          "type": "uint256"
        },
        {
          "internalType": "uint256",
          "name": "amountBMin",
          "type": "uint256"
        },
        {
          "internalType": "address",
          "name": "to",
          "type": "address"
        },
        {
          "internalType": "uint256",
          "name": "deadline",
          "type": "uint256"
        }
      ],
      "name": "removeLiquidity",
      "outputs": [
        {
          "internalType": "uint256",
          "name": "amountA",
          "type": "uint256"
        },
        {
          "internalType": "uint256",
          "name": "amountB",
          "type": "uint256"
        }
      ],
      "stateMutability": "nonpayable",
      "type": "function"
    },
    {
      "inputs": [
        {
          "internalType": "address",
          "name": "token",
          "type": "address"
        },
        {
          "internalType": "uint256",
          "name": "liquidity",
          "type": "uint256"
        },
        {
          "internalType": "uint256",
          "name": "amountTokenMin",
          "type": "uint256"
        },
        {
          "internalType": "uint256",
          "name": "amountETHMin",
          "type": "uint256"
        },
        {
          "internalType": "address",
          "name": "to",
          "type": "address"
        },
        {
          "internalType": "uint256",
          "name": "deadline",
          "type": "uint256"
        }
      ],
      "name": "removeLiquidityETH",
      "outputs": [
        {
          "internalType": "uint256",
          "name": "amountToken",
          "type": "uint256"
        },
        {
          "internalType": "uint256",
          "name": "amountETH",
          "type": "uint256"
        }
      ],
      "stateMutability": "nonpayable",
      "type": "function"
    },
    {
      "inputs": [
        {
          "internalType": "address",
          "name": "tokenA",
          "type": "address"
        },
        {
          "internalType": "address",
          "name": "tokenB",
          "type": "address"
        },
        {
          "internalType": "uint256",
          "name": "liquidity",
          "type": "uint256"
        },
        {
          "internalType": "uint256",
          "name": "amountAMin",
          "type": "uint256"
        },
        {
          "internalType": "uint256",
          "name": "amountBMin",
          "type": "uint256"
        },
        {
          "internalType": "address",
          "name": "to",
          "type": "address"
        },
        {
          "internalType": "uint256",
          "name": "deadline",
          "type": "uint256"
        },
        {
          "internalType": "bool",
          "name": "approveMax",
          "type": "bool"
        },
        {
          "internalType": "uint8",
          "name": "v",
          "type": "uint8"
        },
        {
          "internalType": "bytes32",
          "name": "r",
          "type": "bytes32"
        },
        {
          "internalType": "bytes32",
          "name": "s",
          "type": "bytes32"
        }
      ],
      "name": "removeLiquidityWithPermit",
      "outputs": [
        {
          "internalType": "uint256",
          "name": "amountA",
          "type": "uint256"
        },
        {
          "internalType": "uint256",
          "name": "amountB",
          "type": "uint256"
        }
      ],
      "stateMutability": "nonpayable",
      "type": "function"
    },
    {
      "inputs": [
        {
          "internalType": "address",
          "name": "token",
          "type": "address"
        },
        {
          "internalType": "uint256",
          "name": "liquidity",
          "type": "uint256"
        },
        {
          "internalType": "uint256",
          "name": "amountTokenMin",
          "type": "uint256"
        },
        {
          "internalType": "uint256",
          "name": "amountETHMin",
          "type": "uint256"
        },
        {
          "internalType": "address",
          "name": "to",
          "type": "address"
        },
        {
          "internalType": "uint256",
          "name": "deadline",
          "type": "uint256"
        },
        {
          "internalType": "bool",
          "name": "approveMax",
          "type": "bool"
        },
        {
          "internalType": "uint8",
          "name": "v",
          "type": "uint8"
        },
        {
          "internalType": "bytes32",
          "name": "r",
          "type": "bytes32"
        },
        {
          "internalType": "bytes32",
          "name": "s",
          "type": "bytes32"
        }
      ],
      "name": "removeLiquidityETHWithPermit",
      "outputs": [
        {
          "internalType": "uint256",
          "name": "amountToken",
          "type": "uint256"
        },
        {
          "internalType": "uint256",
          "name": "amountETH",
          "type": "uint256"
        }
      ],
      "stateMutability": "nonpayable",
      "type": "function"
    },
    {
      "inputs": [
        {
          "internalType": "uint256",
          "name": "amountIn",
          "type": "uint256"
        },
        {
          "internalType": "uint256",
          "name": "amountOutMin",
          "type": "uint256"
        },
        {
          "internalType": "address[]",
          "name": "path",
          "type": "address[]"
        },
        {
          "internalType": "address",
          "name": "to",
          "type": "address"
        },
        {
          "internalType": "uint256",
          "name": "deadline",
          "type": "uint256"
        }
      ],
      "name": "swapExactTokensForTokens",
      "outputs": [
        {
          "internalType": "uint256[]",
          "name": "amounts",
          "type": "uint256[]"
        }
      ],
      "stateMutability": "nonpayable",
      "type": "function"
    },
    {
      "inputs": [
        {
          "internalType": "uint256",
          "name": "amountIn",
          "type": "uint256"
        },
        {
          "internalType": "address[]",
          "name": "path",
          "type": "address[]"
        }
      ],
      "name": "getOutAmount",
      "outputs": [
        {
          "internalType": "uint256",
          "name": "amount",
          "type": "uint256"
        }
      ],
      "stateMutability": "view",
      "type": "function"
    },
    {
      "inputs": [
        {
          "internalType": "uint256",
          "name": "amountOut",
          "type": "uint256"
        },
        {
          "internalType": "uint256",
          "name": "amountInMax",
          "type": "uint256"
        },
        {
          "internalType": "address[]",
          "name": "path",
          "type": "address[]"
        },
        {
          "internalType": "address",
          "name": "to",
          "type": "address"
        },
        {
          "internalType": "uint256",
          "name": "deadline",
          "type": "uint256"
        }
      ],
      "name": "swapTokensForExactTokens",
      "outputs": [
        {
          "internalType": "uint256[]",
          "name": "amounts",
          "type": "uint256[]"
        }
      ],
      "stateMutability": "nonpayable",
      "type": "function"
    },
    {
      "inputs": [
        {
          "internalType": "uint256",
          "name": "amountOutMin",
          "type": "uint256"
        },
        {
          "internalType": "address[]",
          "name": "path",
          "type": "address[]"
        },
        {
          "internalType": "address",
          "name": "to",
          "type": "address"
        },
        {
          "internalType": "uint256",
          "name": "deadline",
          "type": "uint256"
        }
      ],
      "name": "swapExactETHForTokens",
      "outputs": [
        {
          "internalType": "uint256[]",
          "name": "amounts",
          "type": "uint256[]"
        }
      ],
      "stateMutability": "payable",
      "type": "function"
    },
    {
      "inputs": [
        {
          "internalType": "uint256",
          "name": "amountOut",
          "type": "uint256"
        },
        {
          "internalType": "uint256",
          "name": "amountInMax",
          "type": "uint256"
        },
        {
          "internalType": "address[]",
          "name": "path",
          "type": "address[]"
        },
        {
          "internalType": "address",
          "name": "to",
          "type": "address"
        },
        {
          "internalType": "uint256",
          "name": "deadline",
          "type": "uint256"
        }
      ],
      "name": "swapTokensForExactETH",
      "outputs": [
        {
          "internalType": "uint256[]",
          "name": "amounts",
          "type": "uint256[]"
        }
      ],
      "stateMutability": "nonpayable",
      "type": "function"
    },
    {
      "inputs": [
        {
          "internalType": "uint256",
          "name": "amountIn",
          "type": "uint256"
        },
        {
          "internalType": "uint256",
          "name": "amountOutMin",
          "type": "uint256"
        },
        {
          "internalType": "address[]",
          "name": "path",
          "type": "address[]"
        },
        {
          "internalType": "address",
          "name": "to",
          "type": "address"
        },
        {
          "internalType": "uint256",
          "name": "deadline",
          "type": "uint256"
        }
      ],
      "name": "swapExactTokensForETH",
      "outputs": [
        {
          "internalType": "uint256[]",
          "name": "amounts",
          "type": "uint256[]"
        }
      ],
      "stateMutability": "nonpayable",
      "type": "function"
    },
    {
      "inputs": [
        {
          "internalType": "uint256",
          "name": "amountOut",
          "type": "uint256"
        },
        {
          "internalType": "address[]",
          "name": "path",
          "type": "address[]"
        },
        {
          "internalType": "address",
          "name": "to",
          "type": "address"
        },
        {
          "internalType": "uint256",
          "name": "deadline",
          "type": "uint256"
        }
      ],
      "name": "swapETHForExactTokens",
      "outputs": [
        {
          "internalType": "uint256[]",
          "name": "amounts",
          "type": "uint256[]"
        }
      ],
      "stateMutability": "payable",
      "type": "function"
    },
    {
      "inputs": [
        {
          "internalType": "uint256",
          "name": "amountA",
          "type": "uint256"
        },
        {
          "internalType": "uint256",
          "name": "reserveA",
          "type": "uint256"
        },
        {
          "internalType": "uint256",
          "name": "reserveB",
          "type": "uint256"
        }
      ],
      "name": "quote",
      "outputs": [
        {
          "internalType": "uint256",
          "name": "amountB",
          "type": "uint256"
        }
      ],
      "stateMutability": "pure",
      "type": "function"
    },
    {
      "inputs": [
        {
          "internalType": "uint256",
          "name": "amountIn",
          "type": "uint256"
        },
        {
          "internalType": "uint256",
          "name": "reserveIn",
          "type": "uint256"
        },
        {
          "internalType": "uint256",
          "name": "reserveOut",
          "type": "uint256"
        }
      ],
      "name": "getAmountOut",
      "outputs": [
        {
          "internalType": "uint256",
          "name": "amountOut",
          "type": "uint256"
        }
      ],
      "stateMutability": "pure",
      "type": "function"
    },
    {
      "inputs": [
        {
          "internalType": "uint256",
          "name": "amountOut",
          "type": "uint256"
        },
        {
          "internalType": "uint256",
          "name": "reserveIn",
          "type": "uint256"
        },
        {
          "internalType": "uint256",
          "name": "reserveOut",
          "type": "uint256"
        }
      ],
      "name": "getAmountIn",
      "outputs": [
        {
          "internalType": "uint256",
          "name": "amountIn",
          "type": "uint256"
        }
      ],
      "stateMutability": "pure",
      "type": "function"
    },
    {
      "inputs": [
        {
          "internalType": "uint256",
          "name": "amountIn",
          "type": "uint256"
        },
        {
          "internalType": "address[]",
          "name": "path",
          "type": "address[]"
        }
      ],
      "name": "getAmountsOut",
      "outputs": [
        {
          "internalType": "uint256[]",
          "name": "amounts",
          "type": "uint256[]"
        }
      ],
      "stateMutability": "view",
      "type": "function"
    },
    {
      "inputs": [
        {
          "internalType": "uint256",
          "name": "amountOut",
          "type": "uint256"
        },
        {
          "internalType": "address[]",
          "name": "path",
          "type": "address[]"
        }
      ],
      "name": "getAmountsIn",
      "outputs": [
        {
          "internalType": "uint256[]",
          "name": "amounts",
          "type": "uint256[]"
        }
      ],
      "stateMutability": "view",
      "type": "function"
    }
  ],
  "bytecode": "0x60c06040523480156200001157600080fd5b50604051620058c0380380620058c0833981810160405281019062000037919062000111565b8173ffffffffffffffffffffffffffffffffffffffff1660808173ffffffffffffffffffffffffffffffffffffffff16815250508073ffffffffffffffffffffffffffffffffffffffff1660a08173ffffffffffffffffffffffffffffffffffffffff1681525050505062000158565b600080fd5b600073ffffffffffffffffffffffffffffffffffffffff82169050919050565b6000620000d982620000ac565b9050919050565b620000eb81620000cc565b8114620000f757600080fd5b50565b6000815190506200010b81620000e0565b92915050565b600080604083850312156200012b576200012a620000a7565b5b60006200013b85828601620000fa565b92505060206200014e85828601620000fa565b9150509250929050565b60805160a051615615620002ab6000396000818161012a01528181610659015281816106970152818161079401528181610a4501528181610ea2015281816111470152818161127b01528181611409015281816114a50152818161188301528181611c1501528181611f6f01528181611fe00152818161206d015281816120ee015281816122950152818161241701526124b301526000818161085b0152818161096001528181610b3801528181610b7001528181610c8201528181610d8701528181610f690152818161106201528181611334015281816114e40152818161169a015281816117930152818161190601528181611b9201528181611bbb01528181611bf301528181611d3b01528181611e8501528181611fa30152818161234e015281816124f201528181612e0c01528181612ed1015281816134f9015281816135b0015261365601526156156000f3fe6080604052600436106101235760003560e01c8063ad5c4648116100a0578063ded9382a11610064578063ded9382a146104f0578063e8e337001461052e578063e9ad7e711461056d578063f305d719146105aa578063fb3bdb41146105dc57610186565b8063ad5c4648146103e2578063ad615dec1461040d578063baa2abde1461044a578063c45a015514610488578063d06ca61f146104b357610186565b806338ed1739116100e757806338ed1739146102be5780634a25d94a146102fb5780637ff36ab51461033857806385f8c259146103685780638803dbee146103a557610186565b806302751cec1461018b578063054d50d4146101c957806318cbafe5146102065780631f00ca74146102435780632195995c1461028057610186565b36610186577f000000000000000000000000000000000000000000000000000000000000000073ffffffffffffffffffffffffffffffffffffffff163373ffffffffffffffffffffffffffffffffffffffff1614610184576101836139ac565b5b005b600080fd5b34801561019757600080fd5b506101b260048036038101906101ad9190613a83565b61060c565b6040516101c0929190613b1f565b60405180910390f35b3480156101d557600080fd5b506101f060048036038101906101eb9190613b48565b610736565b6040516101fd9190613b9b565b60405180910390f35b34801561021257600080fd5b5061022d60048036038101906102289190613c1b565b61074c565b60405161023a9190613d73565b60405180910390f35b34801561024f57600080fd5b5061026a60048036038101906102659190613ee4565b610b31565b6040516102779190613d73565b60405180910390f35b34801561028c57600080fd5b506102a760048036038101906102a29190613fe7565b610b66565b6040516102b5929190613b1f565b60405180910390f35b3480156102ca57600080fd5b506102e560048036038101906102e09190613c1b565b610c37565b6040516102f29190613d73565b60405180910390f35b34801561030757600080fd5b50610322600480360381019061031d9190613c1b565b610e5a565b60405161032f9190613d73565b60405180910390f35b610352600480360381019061034d91906140db565b611233565b60405161035f9190613d73565b60405180910390f35b34801561037457600080fd5b5061038f600480360381019061038a9190613b48565b611639565b60405161039c9190613b9b565b60405180910390f35b3480156103b157600080fd5b506103cc60048036038101906103c79190613c1b565b61164f565b6040516103d99190613d73565b60405180910390f35b3480156103ee57600080fd5b506103f7611881565b6040516104049190614172565b60405180910390f35b34801561041957600080fd5b50610434600480360381019061042f9190613b48565b6118a5565b6040516104419190613b9b565b60405180910390f35b34801561045657600080fd5b50610471600480360381019061046c919061418d565b6118bb565b60405161047f929190613b1f565b60405180910390f35b34801561049457600080fd5b5061049d611b90565b6040516104aa9190614172565b60405180910390f35b3480156104bf57600080fd5b506104da60048036038101906104d59190613ee4565b611bb4565b6040516104e79190613d73565b60405180910390f35b3480156104fc57600080fd5b506105176004803603810190610512919061422f565b611be9565b604051610525929190613b1f565b60405180910390f35b34801561053a57600080fd5b506105556004803603810190610550919061430e565b611cd8565b604051610564939291906143c4565b60405180910390f35b34801561057957600080fd5b50610594600480360381019061058f91906143fb565b611e7d565b6040516105a19190613b9b565b60405180910390f35b6105c460048036038101906105bf9190613a83565b611f20565b6040516105d3939291906143c4565b60405180910390f35b6105f660048036038101906105f191906140db565b61224d565b6040516106039190613d73565b60405180910390f35b6000808242811015610653576040517f08c379a000000000000000000000000000000000000000000000000000000000815260040161064a906144b8565b60405180910390fd5b610682897f00000000000000000000000000000000000000000000000000000000000000008a8a8a308a6118bb565b809350819450505061069589868561269b565b7f000000000000000000000000000000000000000000000000000000000000000073ffffffffffffffffffffffffffffffffffffffff16632e1a7d4d836040518263ffffffff1660e01b81526004016106ee9190613b9b565b600060405180830381600087803b15801561070857600080fd5b505af115801561071c573d6000803e3d6000fd5b5050505061072a85836127d1565b50965096945050505050565b60006107438484846128d1565b90509392505050565b60608142811015610792576040517f08c379a0000000000000000000000000000000000000000000000000000000008152600401610789906144b8565b60405180910390fd5b7f000000000000000000000000000000000000000000000000000000000000000073ffffffffffffffffffffffffffffffffffffffff1686866001898990506107db9190614507565b8181106107eb576107ea61453b565b5b9050602002016020810190610800919061456a565b73ffffffffffffffffffffffffffffffffffffffff1614610856576040517f08c379a000000000000000000000000000000000000000000000000000000000815260040161084d906145e3565b60405180910390fd5b6108c27f000000000000000000000000000000000000000000000000000000000000000089888880806020026020016040519081016040528093929190818152602001838360200280828437600081840152601f19601f820116905080830192505050505050506129d7565b91508682600184516108d49190614507565b815181106108e5576108e461453b565b5b6020026020010151101561092e576040517f08c379a000000000000000000000000000000000000000000000000000000000815260040161092590614675565b60405180910390fd5b6109f7868660008181106109455761094461453b565b5b905060200201602081019061095a919061456a565b336109d67f00000000000000000000000000000000000000000000000000000000000000008a8a60008181106109935761099261453b565b5b90506020020160208101906109a8919061456a565b8b8b60018181106109bc576109bb61453b565b5b90506020020160208101906109d1919061456a565b612b62565b856000815181106109ea576109e961453b565b5b6020026020010151612bd4565b610a4382878780806020026020016040519081016040528093929190818152602001838360200280828437600081840152601f19601f8201169050808301925050505050505030612d0d565b7f000000000000000000000000000000000000000000000000000000000000000073ffffffffffffffffffffffffffffffffffffffff16632e1a7d4d8360018551610a8e9190614507565b81518110610a9f57610a9e61453b565b5b60200260200101516040518263ffffffff1660e01b8152600401610ac39190613b9b565b600060405180830381600087803b158015610add57600080fd5b505af1158015610af1573d6000803e3d6000fd5b50505050610b26848360018551610b089190614507565b81518110610b1957610b1861453b565b5b60200260200101516127d1565b509695505050505050565b6060610b5e7f00000000000000000000000000000000000000000000000000000000000000008484613048565b905092915050565b6000806000610b967f00000000000000000000000000000000000000000000000000000000000000008f8f612b62565b90508073ffffffffffffffffffffffffffffffffffffffff1663d505accf33308f8c8b8b8b6040518863ffffffff1660e01b8152600401610bdd97969594939291906146b3565b600060405180830381600087803b158015610bf757600080fd5b505af1158015610c0b573d6000803e3d6000fd5b50505050610c1e8e8e8e8e8e8e8e6118bb565b8093508194505050509b509b9950505050505050505050565b60608142811015610c7d576040517f08c379a0000000000000000000000000000000000000000000000000000000008152600401610c74906144b8565b60405180910390fd5b610ce97f000000000000000000000000000000000000000000000000000000000000000089888880806020026020016040519081016040528093929190818152602001838360200280828437600081840152601f19601f820116905080830192505050505050506129d7565b9150868260018451610cfb9190614507565b81518110610d0c57610d0b61453b565b5b60200260200101511015610d55576040517f08c379a0000000000000000000000000000000000000000000000000000000008152600401610d4c90614675565b60405180910390fd5b610e0386866000818110610d6c57610d6b61453b565b5b9050602002016020810190610d81919061456a565b33610dfd7f00000000000000000000000000000000000000000000000000000000000000008a8a6000818110610dba57610db961453b565b5b9050602002016020810190610dcf919061456a565b8b8b6001818110610de357610de261453b565b5b9050602002016020810190610df8919061456a565b612b62565b8b612bd4565b610e4f82878780806020026020016040519081016040528093929190818152602001838360200280828437600081840152601f19601f8201169050808301925050505050505086612d0d565b509695505050505050565b60608142811015610ea0576040517f08c379a0000000000000000000000000000000000000000000000000000000008152600401610e97906144b8565b60405180910390fd5b7f000000000000000000000000000000000000000000000000000000000000000073ffffffffffffffffffffffffffffffffffffffff168686600189899050610ee99190614507565b818110610ef957610ef861453b565b5b9050602002016020810190610f0e919061456a565b73ffffffffffffffffffffffffffffffffffffffff1614610f64576040517f08c379a0000000000000000000000000000000000000000000000000000000008152600401610f5b906145e3565b60405180910390fd5b610fd07f000000000000000000000000000000000000000000000000000000000000000089888880806020026020016040519081016040528093929190818152602001838360200280828437600081840152601f19601f82011690508083019250505050505050613048565b91508682600081518110610fe757610fe661453b565b5b60200260200101511115611030576040517f08c379a000000000000000000000000000000000000000000000000000000000815260040161102790614794565b60405180910390fd5b6110f9868660008181106110475761104661453b565b5b905060200201602081019061105c919061456a565b336110d87f00000000000000000000000000000000000000000000000000000000000000008a8a60008181106110955761109461453b565b5b90506020020160208101906110aa919061456a565b8b8b60018181106110be576110bd61453b565b5b90506020020160208101906110d3919061456a565b612b62565b856000815181106110ec576110eb61453b565b5b6020026020010151612bd4565b61114582878780806020026020016040519081016040528093929190818152602001838360200280828437600081840152601f19601f8201169050808301925050505050505030612d0d565b7f000000000000000000000000000000000000000000000000000000000000000073ffffffffffffffffffffffffffffffffffffffff16632e1a7d4d83600185516111909190614507565b815181106111a1576111a061453b565b5b60200260200101516040518263ffffffff1660e01b81526004016111c59190613b9b565b600060405180830381600087803b1580156111df57600080fd5b505af11580156111f3573d6000803e3d6000fd5b5050505061122884836001855161120a9190614507565b8151811061121b5761121a61453b565b5b60200260200101516127d1565b509695505050505050565b60608142811015611279576040517f08c379a0000000000000000000000000000000000000000000000000000000008152600401611270906144b8565b60405180910390fd5b7f000000000000000000000000000000000000000000000000000000000000000073ffffffffffffffffffffffffffffffffffffffff16868660008181106112c4576112c361453b565b5b90506020020160208101906112d9919061456a565b73ffffffffffffffffffffffffffffffffffffffff161461132f576040517f08c379a0000000000000000000000000000000000000000000000000000000008152600401611326906145e3565b60405180910390fd5b61139b7f000000000000000000000000000000000000000000000000000000000000000034888880806020026020016040519081016040528093929190818152602001838360200280828437600081840152601f19601f820116905080830192505050505050506129d7565b91508682600184516113ad9190614507565b815181106113be576113bd61453b565b5b60200260200101511015611407576040517f08c379a00000000000000000000000000000000000000000000000000000000081526004016113fe90614675565b60405180910390fd5b7f000000000000000000000000000000000000000000000000000000000000000073ffffffffffffffffffffffffffffffffffffffff1663d0e30db0836000815181106114575761145661453b565b5b60200260200101516040518263ffffffff1660e01b81526004016000604051808303818588803b15801561148a57600080fd5b505af115801561149e573d6000803e3d6000fd5b50505050507f000000000000000000000000000000000000000000000000000000000000000073ffffffffffffffffffffffffffffffffffffffff1663a9059cbb61155a7f0000000000000000000000000000000000000000000000000000000000000000898960008181106115175761151661453b565b5b905060200201602081019061152c919061456a565b8a8a60018181106115405761153f61453b565b5b9050602002016020810190611555919061456a565b612b62565b8460008151811061156e5761156d61453b565b5b60200260200101516040518363ffffffff1660e01b81526004016115939291906147b4565b6020604051808303816000875af11580156115b2573d6000803e3d6000fd5b505050506040513d601f19601f820116820180604052508101906115d691906147f2565b6115e3576115e26139ac565b5b61162f82878780806020026020016040519081016040528093929190818152602001838360200280828437600081840152601f19601f8201169050808301925050505050505086612d0d565b5095945050505050565b60006116468484846131e3565b90509392505050565b60608142811015611695576040517f08c379a000000000000000000000000000000000000000000000000000000000815260040161168c906144b8565b60405180910390fd5b6117017f000000000000000000000000000000000000000000000000000000000000000089888880806020026020016040519081016040528093929190818152602001838360200280828437600081840152601f19601f82011690508083019250505050505050613048565b915086826000815181106117185761171761453b565b5b60200260200101511115611761576040517f08c379a000000000000000000000000000000000000000000000000000000000815260040161175890614794565b60405180910390fd5b61182a868660008181106117785761177761453b565b5b905060200201602081019061178d919061456a565b336118097f00000000000000000000000000000000000000000000000000000000000000008a8a60008181106117c6576117c561453b565b5b90506020020160208101906117db919061456a565b8b8b60018181106117ef576117ee61453b565b5b9050602002016020810190611804919061456a565b612b62565b8560008151811061181d5761181c61453b565b5b6020026020010151612bd4565b61187682878780806020026020016040519081016040528093929190818152602001838360200280828437600081840152601f19601f8201169050808301925050505050505086612d0d565b509695505050505050565b7f000000000000000000000000000000000000000000000000000000000000000081565b60006118b28484846132f6565b90509392505050565b6000808242811015611902576040517f08c379a00000000000000000000000000000000000000000000000000000000081526004016118f9906144b8565b60405180910390fd5b60007f000000000000000000000000000000000000000000000000000000000000000073ffffffffffffffffffffffffffffffffffffffff1663e6a439058c8c6040518363ffffffff1660e01b815260040161195f92919061481f565b602060405180830381865afa15801561197c573d6000803e3d6000fd5b505050506040513d601f19601f820116820180604052508101906119a0919061485d565b90508073ffffffffffffffffffffffffffffffffffffffff166323b872dd33838c6040518463ffffffff1660e01b81526004016119df9392919061488a565b6020604051808303816000875af11580156119fe573d6000803e3d6000fd5b505050506040513d601f19601f82011682018060405250810190611a2291906147f2565b506000808273ffffffffffffffffffffffffffffffffffffffff166389afcb44896040518263ffffffff1660e01b8152600401611a5f9190614172565b60408051808303816000875af1158015611a7d573d6000803e3d6000fd5b505050506040513d601f19601f82011682018060405250810190611aa191906148d6565b915091506000611ab18e8e6133b0565b5090508073ffffffffffffffffffffffffffffffffffffffff168e73ffffffffffffffffffffffffffffffffffffffff1614611aee578183611af1565b82825b80975081985050508a871015611b3c576040517f08c379a0000000000000000000000000000000000000000000000000000000008152600401611b3390614988565b60405180910390fd5b89861015611b7f576040517f08c379a0000000000000000000000000000000000000000000000000000000008152600401611b7690614a1a565b60405180910390fd5b505050505097509795505050505050565b7f000000000000000000000000000000000000000000000000000000000000000081565b6060611be17f000000000000000000000000000000000000000000000000000000000000000084846129d7565b905092915050565b6000806000611c397f00000000000000000000000000000000000000000000000000000000000000008e7f0000000000000000000000000000000000000000000000000000000000000000612b62565b90508073ffffffffffffffffffffffffffffffffffffffff1663d505accf33308f8c8b8b8b6040518863ffffffff1660e01b8152600401611c8097969594939291906146b3565b600060405180830381600087803b158015611c9a57600080fd5b505af1158015611cae573d6000803e3d6000fd5b50505050611cc08d8d8d8d8d8d61060c565b8093508194505050509a509a98505050505050505050565b60008060008342811015611d21576040517f08c379a0000000000000000000000000000000000000000000000000000000008152600401611d18906144b8565b60405180910390fd5b611d2f8c8c8c8c8c8c6134dc565b809450819550505060007f000000000000000000000000000000000000000000000000000000000000000073ffffffffffffffffffffffffffffffffffffffff1663e6a439058e8e6040518363ffffffff1660e01b8152600401611d9492919061481f565b602060405180830381865afa158015611db1573d6000803e3d6000fd5b505050506040513d601f19601f82011682018060405250810190611dd5919061485d565b9050611de38d338388612bd4565b611def8c338387612bd4565b8073ffffffffffffffffffffffffffffffffffffffff16636a627842886040518263ffffffff1660e01b8152600401611e289190614172565b6020604051808303816000875af1158015611e47573d6000803e3d6000fd5b505050506040513d601f19601f82011682018060405250810190611e6b9190614a3a565b92505050985098509895505050505050565b600080611eec7f000000000000000000000000000000000000000000000000000000000000000086868680806020026020016040519081016040528093929190818152602001838360200280828437600081840152601f19601f820116905080830192505050505050506129d7565b90508060018251611efd9190614507565b81518110611f0e57611f0d61453b565b5b60200260200101519150509392505050565b60008060008342811015611f69576040517f08c379a0000000000000000000000000000000000000000000000000000000008152600401611f60906144b8565b60405180910390fd5b611f978a7f00000000000000000000000000000000000000000000000000000000000000008b348c8c6134dc565b809450819550505060007f000000000000000000000000000000000000000000000000000000000000000073ffffffffffffffffffffffffffffffffffffffff1663e6a439058c7f00000000000000000000000000000000000000000000000000000000000000006040518363ffffffff1660e01b815260040161201c92919061481f565b602060405180830381865afa158015612039573d6000803e3d6000fd5b505050506040513d601f19601f8201168201806040525081019061205d919061485d565b905061206b8b338388612bd4565b7f000000000000000000000000000000000000000000000000000000000000000073ffffffffffffffffffffffffffffffffffffffff1663d0e30db0856040518263ffffffff1660e01b81526004016000604051808303818588803b1580156120d357600080fd5b505af11580156120e7573d6000803e3d6000fd5b50505050507f000000000000000000000000000000000000000000000000000000000000000073ffffffffffffffffffffffffffffffffffffffff1663a9059cbb82866040518363ffffffff1660e01b81526004016121479291906147b4565b6020604051808303816000875af1158015612166573d6000803e3d6000fd5b505050506040513d601f19601f8201168201806040525081019061218a91906147f2565b612197576121966139ac565b5b8073ffffffffffffffffffffffffffffffffffffffff16636a627842886040518263ffffffff1660e01b81526004016121d09190614172565b6020604051808303816000875af11580156121ef573d6000803e3d6000fd5b505050506040513d601f19601f820116820180604052508101906122139190614a3a565b9250600084346122239190614507565b111561223f5761223e3385346122399190614507565b6127d1565b5b505096509650969350505050565b60608142811015612293576040517f08c379a000000000000000000000000000000000000000000000000000000000815260040161228a906144b8565b60405180910390fd5b7f000000000000000000000000000000000000000000000000000000000000000073ffffffffffffffffffffffffffffffffffffffff16868660008181106122de576122dd61453b565b5b90506020020160208101906122f3919061456a565b73ffffffffffffffffffffffffffffffffffffffff1614612349576040517f08c379a0000000000000000000000000000000000000000000000000000000008152600401612340906145e3565b60405180910390fd5b6123b57f000000000000000000000000000000000000000000000000000000000000000088888880806020026020016040519081016040528093929190818152602001838360200280828437600081840152601f19601f82011690508083019250505050505050613048565b915034826000815181106123cc576123cb61453b565b5b60200260200101511115612415576040517f08c379a000000000000000000000000000000000000000000000000000000000815260040161240c90614794565b60405180910390fd5b7f000000000000000000000000000000000000000000000000000000000000000073ffffffffffffffffffffffffffffffffffffffff1663d0e30db0836000815181106124655761246461453b565b5b60200260200101516040518263ffffffff1660e01b81526004016000604051808303818588803b15801561249857600080fd5b505af11580156124ac573d6000803e3d6000fd5b50505050507f000000000000000000000000000000000000000000000000000000000000000073ffffffffffffffffffffffffffffffffffffffff1663a9059cbb6125687f0000000000000000000000000000000000000000000000000000000000000000898960008181106125255761252461453b565b5b905060200201602081019061253a919061456a565b8a8a600181811061254e5761254d61453b565b5b9050602002016020810190612563919061456a565b612b62565b8460008151811061257c5761257b61453b565b5b60200260200101516040518363ffffffff1660e01b81526004016125a19291906147b4565b6020604051808303816000875af11580156125c0573d6000803e3d6000fd5b505050506040513d601f19601f820116820180604052508101906125e491906147f2565b6125f1576125f06139ac565b5b61263d82878780806020026020016040519081016040528093929190818152602001838360200280828437600081840152601f19601f8201169050808301925050505050505086612d0d565b816000815181106126515761265061453b565b5b60200260200101513411156126915761269033836000815181106126785761267761453b565b5b60200260200101513461268b9190614507565b6127d1565b5b5095945050505050565b6000808473ffffffffffffffffffffffffffffffffffffffff1663a9059cbb85856040516024016126cd9291906147b4565b6040516020818303038152906040529060e01b6020820180517bffffffffffffffffffffffffffffffffffffffffffffffffffffffff838183161783525050505060405161271b9190614ad8565b6000604051808303816000865af19150503d8060008114612758576040519150601f19603f3d011682016040523d82523d6000602084013e61275d565b606091505b509150915081801561278b575060008151148061278a57508080602001905181019061278991906147f2565b5b5b6127ca576040517f08c379a00000000000000000000000000000000000000000000000000000000081526004016127c190614b61565b60405180910390fd5b5050505050565b60008273ffffffffffffffffffffffffffffffffffffffff1682600067ffffffffffffffff81111561280657612805613da6565b5b6040519080825280601f01601f1916602001820160405280156128385781602001600182028036833780820191505090505b506040516128469190614ad8565b60006040518083038185875af1925050503d8060008114612883576040519150601f19603f3d011682016040523d82523d6000602084013e612888565b606091505b50509050806128cc576040517f08c379a00000000000000000000000000000000000000000000000000000000081526004016128c390614bf3565b60405180910390fd5b505050565b6000808411612915576040517f08c379a000000000000000000000000000000000000000000000000000000000815260040161290c90614c85565b60405180910390fd5b6000831180156129255750600082115b612964576040517f08c379a000000000000000000000000000000000000000000000000000000000815260040161295b90614d17565b60405180910390fd5b600061297b6103e58661378a90919063ffffffff16565b90506000612992848361378a90919063ffffffff16565b905060006129bd836129af6103e88961378a90919063ffffffff16565b6137f790919063ffffffff16565b905080826129cb9190614d66565b93505050509392505050565b6060600282511015612a1e576040517f08c379a0000000000000000000000000000000000000000000000000000000008152600401612a1590614de3565b60405180910390fd5b815167ffffffffffffffff811115612a3957612a38613da6565b5b604051908082528060200260200182016040528015612a675781602001602082028036833780820191505090505b5090508281600081518110612a7f57612a7e61453b565b5b60200260200101818152505060005b60018351612a9c9190614507565b811015612b5a57600080612af187868581518110612abd57612abc61453b565b5b602002602001015187600187612ad39190614e03565b81518110612ae457612ae361453b565b5b6020026020010151613850565b91509150612b1a848481518110612b0b57612b0a61453b565b5b602002602001015183836128d1565b84600185612b289190614e03565b81518110612b3957612b3861453b565b5b60200260200101818152505050508080612b5290614e37565b915050612a8e565b509392505050565b6000806000612b7185856133b0565b91509150858282604051602001612b89929190614ec7565b60405160208183030381529060405280519060200120604051602001612bb0929190614fb7565b6040516020818303038152906040528051906020012060001c925050509392505050565b6000808573ffffffffffffffffffffffffffffffffffffffff166323b872dd868686604051602401612c089392919061488a565b6040516020818303038152906040529060e01b6020820180517bffffffffffffffffffffffffffffffffffffffffffffffffffffffff8381831617835250505050604051612c569190614ad8565b6000604051808303816000865af19150503d8060008114612c93576040519150601f19603f3d011682016040523d82523d6000602084013e612c98565b606091505b5091509150818015612cc65750600081511480612cc5575080806020019051810190612cc491906147f2565b5b5b612d05576040517f08c379a0000000000000000000000000000000000000000000000000000000008152600401612cfc9061506b565b60405180910390fd5b505050505050565b60005b60018351612d1e9190614507565b81101561304257600080848381518110612d3b57612d3a61453b565b5b602002602001015185600185612d519190614e03565b81518110612d6257612d6161453b565b5b6020026020010151915091506000612d7a83836133b0565b509050600087600186612d8d9190614e03565b81518110612d9e57612d9d61453b565b5b602002602001015190506000808573ffffffffffffffffffffffffffffffffffffffff168473ffffffffffffffffffffffffffffffffffffffff1614612de657600083612dea565b8260005b91509150600060028a51612dfe9190614507565b8810612e0a5788612ecd565b7f000000000000000000000000000000000000000000000000000000000000000073ffffffffffffffffffffffffffffffffffffffff1663e6a43905878c60028c612e559190614e03565b81518110612e6657612e6561453b565b5b60200260200101516040518363ffffffff1660e01b8152600401612e8b92919061481f565b602060405180830381865afa158015612ea8573d6000803e3d6000fd5b505050506040513d601f19601f82011682018060405250810190612ecc919061485d565b5b90507f000000000000000000000000000000000000000000000000000000000000000073ffffffffffffffffffffffffffffffffffffffff1663e6a4390588886040518363ffffffff1660e01b8152600401612f2a92919061481f565b602060405180830381865afa158015612f47573d6000803e3d6000fd5b505050506040513d601f19601f82011682018060405250810190612f6b919061485d565b73ffffffffffffffffffffffffffffffffffffffff1663022c0d9f848484600067ffffffffffffffff811115612fa457612fa3613da6565b5b6040519080825280601f01601f191660200182016040528015612fd65781602001600182028036833780820191505090505b506040518563ffffffff1660e01b8152600401612ff694939291906150d5565b600060405180830381600087803b15801561301057600080fd5b505af1158015613024573d6000803e3d6000fd5b5050505050505050505050808061303a90614e37565b915050612d10565b50505050565b606060028251101561308f576040517f08c379a000000000000000000000000000000000000000000000000000000000815260040161308690614de3565b60405180910390fd5b815167ffffffffffffffff8111156130aa576130a9613da6565b5b6040519080825280602002602001820160405280156130d85781602001602082028036833780820191505090505b5090508281600183516130eb9190614507565b815181106130fc576130fb61453b565b5b6020026020010181815250506000600183516131189190614507565b90505b60008111156131db5760008061317287866001866131399190614507565b8151811061314a5761314961453b565b5b60200260200101518786815181106131655761316461453b565b5b6020026020010151613850565b9150915061319b84848151811061318c5761318b61453b565b5b602002602001015183836131e3565b846001856131a99190614507565b815181106131ba576131b961453b565b5b602002602001018181525050505080806131d390615121565b91505061311b565b509392505050565b6000808411613227576040517f08c379a000000000000000000000000000000000000000000000000000000000815260040161321e906151bc565b60405180910390fd5b6000831180156132375750600082115b613276576040517f08c379a000000000000000000000000000000000000000000000000000000000815260040161326d90614d17565b60405180910390fd5b600061329f6103e8613291878761378a90919063ffffffff16565b61378a90919063ffffffff16565b905060006132ca6103e56132bc888761395390919063ffffffff16565b61378a90919063ffffffff16565b90506132eb600182846132dd9190614d66565b6137f790919063ffffffff16565b925050509392505050565b600080841161333a576040517f08c379a00000000000000000000000000000000000000000000000000000000081526004016133319061524e565b60405180910390fd5b60008311801561334a5750600082115b613389576040517f08c379a000000000000000000000000000000000000000000000000000000000815260040161338090614d17565b60405180910390fd5b8261339d838661378a90919063ffffffff16565b6133a79190614d66565b90509392505050565b6000808273ffffffffffffffffffffffffffffffffffffffff168473ffffffffffffffffffffffffffffffffffffffff1603613421576040517f08c379a0000000000000000000000000000000000000000000000000000000008152600401613418906152e0565b60405180910390fd5b8273ffffffffffffffffffffffffffffffffffffffff168473ffffffffffffffffffffffffffffffffffffffff161061345b57828461345e565b83835b8092508193505050600073ffffffffffffffffffffffffffffffffffffffff168273ffffffffffffffffffffffffffffffffffffffff16036134d5576040517f08c379a00000000000000000000000000000000000000000000000000000000081526004016134cc9061534c565b60405180910390fd5b9250929050565b600080600073ffffffffffffffffffffffffffffffffffffffff167f000000000000000000000000000000000000000000000000000000000000000073ffffffffffffffffffffffffffffffffffffffff1663e6a439058a8a6040518363ffffffff1660e01b815260040161355292919061481f565b602060405180830381865afa15801561356f573d6000803e3d6000fd5b505050506040513d601f19601f82011682018060405250810190613593919061485d565b73ffffffffffffffffffffffffffffffffffffffff160361364e577f000000000000000000000000000000000000000000000000000000000000000073ffffffffffffffffffffffffffffffffffffffff1663c9c6539689896040518363ffffffff1660e01b815260040161360992919061481f565b6020604051808303816000875af1158015613628573d6000803e3d6000fd5b505050506040513d601f19601f8201168201806040525081019061364c919061485d565b505b60008061367c7f00000000000000000000000000000000000000000000000000000000000000008b8b613850565b915091506000821480156136905750600081145b156136a4578787809450819550505061377d565b60006136b18984846132f6565b905087811161370c57858110156136fd576040517f08c379a00000000000000000000000000000000000000000000000000000000081526004016136f490614a1a565b60405180910390fd5b8881809550819650505061377b565b60006137198984866132f6565b90508981111561372c5761372b6139ac565b5b8781101561376f576040517f08c379a000000000000000000000000000000000000000000000000000000000815260040161376690614988565b60405180910390fd5b80898096508197505050505b505b5050965096945050505050565b6000808214806137b25750828283856137a3919061536c565b9250826137b09190614d66565b145b6137f1576040517f08c379a00000000000000000000000000000000000000000000000000000000081526004016137e890615412565b60405180910390fd5b92915050565b60008282846138069190614e03565b915081101561384a576040517f08c379a00000000000000000000000000000000000000000000000000000000081526004016138419061547e565b60405180910390fd5b92915050565b600080600061385f85856133b0565b509050600080613870888888612b62565b73ffffffffffffffffffffffffffffffffffffffff16630902f1ac6040518163ffffffff1660e01b8152600401606060405180830381865afa1580156138ba573d6000803e3d6000fd5b505050506040513d601f19601f820116820180604052508101906138de9190615520565b506dffffffffffffffffffffffffffff1691506dffffffffffffffffffffffffffff1691508273ffffffffffffffffffffffffffffffffffffffff168773ffffffffffffffffffffffffffffffffffffffff161461393d578082613940565b81815b8095508196505050505050935093915050565b60008282846139629190614507565b91508111156139a6576040517f08c379a000000000000000000000000000000000000000000000000000000000815260040161399d906155bf565b60405180910390fd5b92915050565b7f4e487b7100000000000000000000000000000000000000000000000000000000600052600160045260246000fd5b6000604051905090565b600080fd5b600080fd5b600073ffffffffffffffffffffffffffffffffffffffff82169050919050565b6000613a1a826139ef565b9050919050565b613a2a81613a0f565b8114613a3557600080fd5b50565b600081359050613a4781613a21565b92915050565b6000819050919050565b613a6081613a4d565b8114613a6b57600080fd5b50565b600081359050613a7d81613a57565b92915050565b60008060008060008060c08789031215613aa057613a9f6139e5565b5b6000613aae89828a01613a38565b9650506020613abf89828a01613a6e565b9550506040613ad089828a01613a6e565b9450506060613ae189828a01613a6e565b9350506080613af289828a01613a38565b92505060a0613b0389828a01613a6e565b9150509295509295509295565b613b1981613a4d565b82525050565b6000604082019050613b346000830185613b10565b613b416020830184613b10565b9392505050565b600080600060608486031215613b6157613b606139e5565b5b6000613b6f86828701613a6e565b9350506020613b8086828701613a6e565b9250506040613b9186828701613a6e565b9150509250925092565b6000602082019050613bb06000830184613b10565b92915050565b600080fd5b600080fd5b600080fd5b60008083601f840112613bdb57613bda613bb6565b5b8235905067ffffffffffffffff811115613bf857613bf7613bbb565b5b602083019150836020820283011115613c1457613c13613bc0565b5b9250929050565b60008060008060008060a08789031215613c3857613c376139e5565b5b6000613c4689828a01613a6e565b9650506020613c5789828a01613a6e565b955050604087013567ffffffffffffffff811115613c7857613c776139ea565b5b613c8489828a01613bc5565b94509450506060613c9789828a01613a38565b9250506080613ca889828a01613a6e565b9150509295509295509295565b600081519050919050565b600082825260208201905092915050565b6000819050602082019050919050565b613cea81613a4d565b82525050565b6000613cfc8383613ce1565b60208301905092915050565b6000602082019050919050565b6000613d2082613cb5565b613d2a8185613cc0565b9350613d3583613cd1565b8060005b83811015613d66578151613d4d8882613cf0565b9750613d5883613d08565b925050600181019050613d39565b5085935050505092915050565b60006020820190508181036000830152613d8d8184613d15565b905092915050565b6000601f19601f8301169050919050565b7f4e487b7100000000000000000000000000000000000000000000000000000000600052604160045260246000fd5b613dde82613d95565b810181811067ffffffffffffffff82111715613dfd57613dfc613da6565b5b80604052505050565b6000613e106139db565b9050613e1c8282613dd5565b919050565b600067ffffffffffffffff821115613e3c57613e3b613da6565b5b602082029050602081019050919050565b6000613e60613e5b84613e21565b613e06565b90508083825260208201905060208402830185811115613e8357613e82613bc0565b5b835b81811015613eac5780613e988882613a38565b845260208401935050602081019050613e85565b5050509392505050565b600082601f830112613ecb57613eca613bb6565b5b8135613edb848260208601613e4d565b91505092915050565b60008060408385031215613efb57613efa6139e5565b5b6000613f0985828601613a6e565b925050602083013567ffffffffffffffff811115613f2a57613f296139ea565b5b613f3685828601613eb6565b9150509250929050565b60008115159050919050565b613f5581613f40565b8114613f6057600080fd5b50565b600081359050613f7281613f4c565b92915050565b600060ff82169050919050565b613f8e81613f78565b8114613f9957600080fd5b50565b600081359050613fab81613f85565b92915050565b6000819050919050565b613fc481613fb1565b8114613fcf57600080fd5b50565b600081359050613fe181613fbb565b92915050565b60008060008060008060008060008060006101608c8e03121561400d5761400c6139e5565b5b600061401b8e828f01613a38565b9b5050602061402c8e828f01613a38565b9a5050604061403d8e828f01613a6e565b995050606061404e8e828f01613a6e565b985050608061405f8e828f01613a6e565b97505060a06140708e828f01613a38565b96505060c06140818e828f01613a6e565b95505060e06140928e828f01613f63565b9450506101006140a48e828f01613f9c565b9350506101206140b68e828f01613fd2565b9250506101406140c88e828f01613fd2565b9150509295989b509295989b9093969950565b6000806000806000608086880312156140f7576140f66139e5565b5b600061410588828901613a6e565b955050602086013567ffffffffffffffff811115614126576141256139ea565b5b61413288828901613bc5565b9450945050604061414588828901613a38565b925050606061415688828901613a6e565b9150509295509295909350565b61416c81613a0f565b82525050565b60006020820190506141876000830184614163565b92915050565b600080600080600080600060e0888a0312156141ac576141ab6139e5565b5b60006141ba8a828b01613a38565b97505060206141cb8a828b01613a38565b96505060406141dc8a828b01613a6e565b95505060606141ed8a828b01613a6e565b94505060806141fe8a828b01613a6e565b93505060a061420f8a828b01613a38565b92505060c06142208a828b01613a6e565b91505092959891949750929550565b6000806000806000806000806000806101408b8d031215614253576142526139e5565b5b60006142618d828e01613a38565b9a505060206142728d828e01613a6e565b99505060406142838d828e01613a6e565b98505060606142948d828e01613a6e565b97505060806142a58d828e01613a38565b96505060a06142b68d828e01613a6e565b95505060c06142c78d828e01613f63565b94505060e06142d88d828e01613f9c565b9350506101006142ea8d828e01613fd2565b9250506101206142fc8d828e01613fd2565b9150509295989b9194979a5092959850565b600080600080600080600080610100898b03121561432f5761432e6139e5565b5b600061433d8b828c01613a38565b985050602061434e8b828c01613a38565b975050604061435f8b828c01613a6e565b96505060606143708b828c01613a6e565b95505060806143818b828c01613a6e565b94505060a06143928b828c01613a6e565b93505060c06143a38b828c01613a38565b92505060e06143b48b828c01613a6e565b9150509295985092959890939650565b60006060820190506143d96000830186613b10565b6143e66020830185613b10565b6143f36040830184613b10565b949350505050565b600080600060408486031215614414576144136139e5565b5b600061442286828701613a6e565b935050602084013567ffffffffffffffff811115614443576144426139ea565b5b61444f86828701613bc5565b92509250509250925092565b600082825260208201905092915050565b7f556e69737761705632526f757465723a20455850495245440000000000000000600082015250565b60006144a260188361445b565b91506144ad8261446c565b602082019050919050565b600060208201905081810360008301526144d181614495565b9050919050565b7f4e487b7100000000000000000000000000000000000000000000000000000000600052601160045260246000fd5b600061451282613a4d565b915061451d83613a4d565b9250828203905081811115614535576145346144d8565b5b92915050565b7f4e487b7100000000000000000000000000000000000000000000000000000000600052603260045260246000fd5b6000602082840312156145805761457f6139e5565b5b600061458e84828501613a38565b91505092915050565b7f556e69737761705632526f757465723a20494e56414c49445f50415448000000600082015250565b60006145cd601d8361445b565b91506145d882614597565b602082019050919050565b600060208201905081810360008301526145fc816145c0565b9050919050565b7f556e69737761705632526f757465723a20494e53554646494349454e545f4f5560008201527f545055545f414d4f554e54000000000000000000000000000000000000000000602082015250565b600061465f602b8361445b565b915061466a82614603565b604082019050919050565b6000602082019050818103600083015261468e81614652565b9050919050565b61469e81613f78565b82525050565b6146ad81613fb1565b82525050565b600060e0820190506146c8600083018a614163565b6146d56020830189614163565b6146e26040830188613b10565b6146ef6060830187613b10565b6146fc6080830186614695565b61470960a08301856146a4565b61471660c08301846146a4565b98975050505050505050565b7f556e69737761705632526f757465723a204558434553534956455f494e50555460008201527f5f414d4f554e5400000000000000000000000000000000000000000000000000602082015250565b600061477e60278361445b565b915061478982614722565b604082019050919050565b600060208201905081810360008301526147ad81614771565b9050919050565b60006040820190506147c96000830185614163565b6147d66020830184613b10565b9392505050565b6000815190506147ec81613f4c565b92915050565b600060208284031215614808576148076139e5565b5b6000614816848285016147dd565b91505092915050565b60006040820190506148346000830185614163565b6148416020830184614163565b9392505050565b60008151905061485781613a21565b92915050565b600060208284031215614873576148726139e5565b5b600061488184828501614848565b91505092915050565b600060608201905061489f6000830186614163565b6148ac6020830185614163565b6148b96040830184613b10565b949350505050565b6000815190506148d081613a57565b92915050565b600080604083850312156148ed576148ec6139e5565b5b60006148fb858286016148c1565b925050602061490c858286016148c1565b9150509250929050565b7f556e69737761705632526f757465723a20494e53554646494349454e545f415f60008201527f414d4f554e540000000000000000000000000000000000000000000000000000602082015250565b600061497260268361445b565b915061497d82614916565b604082019050919050565b600060208201905081810360008301526149a181614965565b9050919050565b7f556e69737761705632526f757465723a20494e53554646494349454e545f425f60008201527f414d4f554e540000000000000000000000000000000000000000000000000000602082015250565b6000614a0460268361445b565b9150614a0f826149a8565b604082019050919050565b60006020820190508181036000830152614a33816149f7565b9050919050565b600060208284031215614a5057614a4f6139e5565b5b6000614a5e848285016148c1565b91505092915050565b600081519050919050565b600081905092915050565b60005b83811015614a9b578082015181840152602081019050614a80565b60008484015250505050565b6000614ab282614a67565b614abc8185614a72565b9350614acc818560208601614a7d565b80840191505092915050565b6000614ae48284614aa7565b915081905092915050565b7f5472616e7366657248656c7065723a3a736166655472616e736665723a20747260008201527f616e73666572206661696c656400000000000000000000000000000000000000602082015250565b6000614b4b602d8361445b565b9150614b5682614aef565b604082019050919050565b60006020820190508181036000830152614b7a81614b3e565b9050919050565b7f5472616e7366657248656c7065723a3a736166655472616e736665724554483a60008201527f20455448207472616e73666572206661696c6564000000000000000000000000602082015250565b6000614bdd60348361445b565b9150614be882614b81565b604082019050919050565b60006020820190508181036000830152614c0c81614bd0565b9050919050565b7f556e697377617056324c6962726172793a20494e53554646494349454e545f4960008201527f4e5055545f414d4f554e54000000000000000000000000000000000000000000602082015250565b6000614c6f602b8361445b565b9150614c7a82614c13565b604082019050919050565b60006020820190508181036000830152614c9e81614c62565b9050919050565b7f556e697377617056324c6962726172793a20494e53554646494349454e545f4c60008201527f4951554944495459000000000000000000000000000000000000000000000000602082015250565b6000614d0160288361445b565b9150614d0c82614ca5565b604082019050919050565b60006020820190508181036000830152614d3081614cf4565b9050919050565b7f4e487b7100000000000000000000000000000000000000000000000000000000600052601260045260246000fd5b6000614d7182613a4d565b9150614d7c83613a4d565b925082614d8c57614d8b614d37565b5b828204905092915050565b7f556e697377617056324c6962726172793a20494e56414c49445f504154480000600082015250565b6000614dcd601e8361445b565b9150614dd882614d97565b602082019050919050565b60006020820190508181036000830152614dfc81614dc0565b9050919050565b6000614e0e82613a4d565b9150614e1983613a4d565b9250828201905080821115614e3157614e306144d8565b5b92915050565b6000614e4282613a4d565b91507fffffffffffffffffffffffffffffffffffffffffffffffffffffffffffffffff8203614e7457614e736144d8565b5b600182019050919050565b60008160601b9050919050565b6000614e9782614e7f565b9050919050565b6000614ea982614e8c565b9050919050565b614ec1614ebc82613a0f565b614e9e565b82525050565b6000614ed38285614eb0565b601482019150614ee38284614eb0565b6014820191508190509392505050565b600081905092915050565b7fff00000000000000000000000000000000000000000000000000000000000000600082015250565b6000614f34600183614ef3565b9150614f3f82614efe565b600182019050919050565b6000819050919050565b614f65614f6082613fb1565b614f4a565b82525050565b7f96e8ac4277198ff8b6f785478aa9a39f403cb768dd02cbee326c3e7da348845f600082015250565b6000614fa1602083614ef3565b9150614fac82614f6b565b602082019050919050565b6000614fc282614f27565b9150614fce8285614eb0565b601482019150614fde8284614f54565b602082019150614fed82614f94565b91508190509392505050565b7f5472616e7366657248656c7065723a3a7472616e7366657246726f6d3a20747260008201527f616e7366657246726f6d206661696c6564000000000000000000000000000000602082015250565b600061505560318361445b565b915061506082614ff9565b604082019050919050565b6000602082019050818103600083015261508481615048565b9050919050565b600082825260208201905092915050565b60006150a782614a67565b6150b1818561508b565b93506150c1818560208601614a7d565b6150ca81613d95565b840191505092915050565b60006080820190506150ea6000830187613b10565b6150f76020830186613b10565b6151046040830185614163565b8181036060830152615116818461509c565b905095945050505050565b600061512c82613a4d565b91506000820361513f5761513e6144d8565b5b600182039050919050565b7f556e697377617056324c6962726172793a20494e53554646494349454e545f4f60008201527f55545055545f414d4f554e540000000000000000000000000000000000000000602082015250565b60006151a6602c8361445b565b91506151b18261514a565b604082019050919050565b600060208201905081810360008301526151d581615199565b9050919050565b7f556e697377617056324c6962726172793a20494e53554646494349454e545f4160008201527f4d4f554e54000000000000000000000000000000000000000000000000000000602082015250565b600061523860258361445b565b9150615243826151dc565b604082019050919050565b600060208201905081810360008301526152678161522b565b9050919050565b7f556e697377617056324c6962726172793a204944454e544943414c5f4144445260008201527f4553534553000000000000000000000000000000000000000000000000000000602082015250565b60006152ca60258361445b565b91506152d58261526e565b604082019050919050565b600060208201905081810360008301526152f9816152bd565b9050919050565b7f556e697377617056324c6962726172793a205a45524f5f414444524553530000600082015250565b6000615336601e8361445b565b915061534182615300565b602082019050919050565b6000602082019050818103600083015261536581615329565b9050919050565b600061537782613a4d565b915061538283613a4d565b9250817fffffffffffffffffffffffffffffffffffffffffffffffffffffffffffffffff04831182151516156153bb576153ba6144d8565b5b828202905092915050565b7f64732d6d6174682d6d756c2d6f766572666c6f77000000000000000000000000600082015250565b60006153fc60148361445b565b9150615407826153c6565b602082019050919050565b6000602082019050818103600083015261542b816153ef565b9050919050565b7f64732d6d6174682d6164642d6f766572666c6f77000000000000000000000000600082015250565b600061546860148361445b565b915061547382615432565b602082019050919050565b600060208201905081810360008301526154978161545b565b9050919050565b60006dffffffffffffffffffffffffffff82169050919050565b6154c18161549e565b81146154cc57600080fd5b50565b6000815190506154de816154b8565b92915050565b600063ffffffff82169050919050565b6154fd816154e4565b811461550857600080fd5b50565b60008151905061551a816154f4565b92915050565b600080600060608486031215615539576155386139e5565b5b6000615547868287016154cf565b9350506020615558868287016154cf565b92505060406155698682870161550b565b9150509250925092565b7f64732d6d6174682d7375622d756e646572666c6f770000000000000000000000600082015250565b60006155a960158361445b565b91506155b482615573565b602082019050919050565b600060208201905081810360008301526155d88161559c565b905091905056fea2646970667358221220a0ede1db519135af6e2f4b41d334571f1384fec377a475cd36d21620b050ad3f64736f6c63430008100033",
  "immutableReferences": {
    "2475": [
      {
        "length": 32,
        "start": 2139
      },
      {
        "length": 32,
        "start": 2400
      },
      {
        "length": 32,
        "start": 2872
      },
      {
        "length": 32,
        "start": 2928
      },
      {
        "length": 32,
        "start": 3202
      },
      {
        "length": 32,
        "start": 3463
      },
      {
        "length": 32,
        "start": 3945
      },
      {
        "length": 32,
        "start": 4194
      },
      {
        "length": 32,
        "start": 4916
      },
      {
        "length": 32,
        "start": 5348
      },
      {
        "length": 32,
        "start": 5786
      },
      {
        "length": 32,
        "start": 6035
      },
      {
        "length": 32,
        "start": 6406
      },
      {
        "length": 32,
        "start": 7058
      },
      {
        "length": 32,
        "start": 7099
      },
      {
        "length": 32,
        "start": 7155
      },
      {
        "length": 32,
        "start": 7483
      },
      {
        "length": 32,
        "start": 7813
      },
      {
        "length": 32,
        "start": 8099
      },
      {
        "length": 32,
        "start": 9038
      },
      {
        "length": 32,
        "start": 9458
      },
      {
        "length": 32,
        "start": 11788
      },
      {
        "length": 32,
        "start": 11985
      },
      {
        "length": 32,
        "start": 13561
      },
      {
        "length": 32,
        "start": 13744
      },
      {
        "length": 32,
        "start": 13910
      }
    ],
    "2478": [
      {
        "length": 32,
        "start": 298
      },
      {
        "length": 32,
        "start": 1625
      },
      {
        "length": 32,
        "start": 1687
      },
      {
        "length": 32,
        "start": 1940
      },
      {
        "length": 32,
        "start": 2629
      },
      {
        "length": 32,
        "start": 3746
      },
      {
        "length": 32,
        "start": 4423
      },
      {
        "length": 32,
        "start": 4731
      },
      {
        "length": 32,
        "start": 5129
      },
      {
        "length": 32,
        "start": 5285
      },
      {
        "length": 32,
        "start": 6275
      },
      {
        "length": 32,
        "start": 7189
      },
      {
        "length": 32,
        "start": 8047
      },
      {
        "length": 32,
        "start": 8160
      },
      {
        "length": 32,
        "start": 8301
      },
      {
        "length": 32,
        "start": 8430
      },
      {
        "length": 32,
        "start": 8853
      },
      {
        "length": 32,
        "start": 9239
      },
      {
        "length": 32,
        "start": 9395
      }
    ]
  },
  "source": "// SPDX-License-Identifier: MIT\r\n\r\npragma solidity ^0.8.0;\r\n\r\nimport \"./interfaces/IUniswapV2Router.sol\";\r\nimport \"../interfaces/IUniswapV2Factory.sol\";\r\nimport \"./libraries/UniswapV2Library.sol\";\r\nimport \"./libraries/TransferHelper.sol\";\r\nimport \"./interfaces/IWETH.sol\";\r\n\r\ncontract Router is IUniswapV2Router {\r\n    using SafeMath for uint;\r\n    address public immutable override factory;\r\n    address public immutable override WETH;\r\n    \r\n    constructor(address _factory , address _WETH) { \r\n        factory = _factory;\r\n        WETH = _WETH;\r\n    }\r\n\r\n    modifier ensure(uint deadline) {\r\n        require(deadline >= block.timestamp , \"UniswapV2Router: EXPIRED\");\r\n        _;\r\n    }\r\n    //receive executed when msg.data is empty and is used as a fallback to receive ether\r\n    receive() external payable {\r\n        assert(msg.sender == WETH); // only accept ETH via fallback from the WETH contract\r\n    }\r\n\r\n    function _addLiquidity(address tokenA , address tokenB , \r\n        uint amountADesired , uint amountBDesired , \r\n        uint amountAMin , uint amountBMin\r\n    ) internal returns(uint amountA , uint amountB) {\r\n\r\n        if(IUniswapV2Factory(factory).getPair(tokenA , tokenB) == address(0)) {\r\n            IUniswapV2Factory(factory).createPair(tokenA , tokenB);\r\n        }\r\n\r\n        (uint reserveA , uint reserveB) = UniswapV2Library.getReserves(factory , tokenA , tokenB);\r\n\r\n        if(reserveA == 0 && reserveB == 0) {\r\n            (amountA , amountB) = (amountADesired , amountBDesired);\r\n        } else {\r\n            uint amountBOptimal = UniswapV2Library.quote(amountADesired , reserveA , reserveB);\r\n            if(amountBOptimal <= amountBDesired) {\r\n                require(amountBOptimal >= amountBMin , \"UniswapV2Router: INSUFFICIENT_B_AMOUNT\");\r\n                (amountA , amountB) = (amountADesired , amountBOptimal);\r\n            } else {\r\n                uint amountAOptimal = UniswapV2Library.quote(amountBDesired , reserveB , reserveA);\r\n                assert(amountAOptimal <= amountADesired);\r\n                require(amountAOptimal >= amountAMin , \"UniswapV2Router: INSUFFICIENT_A_AMOUNT\");\r\n                (amountA, amountB) = (amountAOptimal , amountBDesired);\r\n            }\r\n        }\r\n\r\n    }\r\n\r\n    function addLiquidity(address tokenA , address tokenB , \r\n        uint amountADesired , uint amountBDesired , \r\n        uint amountAMin , uint amountBMin , \r\n        address to , uint deadline\r\n    ) external override ensure(deadline) returns(uint amountA , uint amountB , uint liquidity) {\r\n        (amountA , amountB) = _addLiquidity(tokenA , tokenB , amountADesired , amountBDesired , amountAMin , amountBMin);\r\n        address pair = IUniswapV2Factory(factory).getPair(tokenA , tokenB);\r\n        TransferHelper.safeTransferFrom(tokenA , msg.sender , pair , amountA);\r\n        TransferHelper.safeTransferFrom(tokenB , msg.sender , pair , amountB);\r\n        liquidity = IUniswapV2Pair(pair).mint(to);\r\n    }\r\n\r\n    function addLiquidityETH(address token , \r\n        uint amountTokenDesired ,  \r\n        uint amountTokenMin ,  uint amountETHMin , \r\n        address to , uint deadline\r\n    ) external override payable ensure(deadline) returns(uint amountToken , uint amountETH , uint liquidity) {\r\n        (amountToken , amountETH) = _addLiquidity(token , WETH , amountTokenDesired , msg.value , amountTokenMin , amountETHMin);\r\n        address pair = IUniswapV2Factory(factory).getPair(token , WETH);\r\n        TransferHelper.safeTransferFrom(token , msg.sender , pair , amountToken);\r\n        IWETH(WETH).deposit{value : amountETH}();\r\n        assert(IWETH(WETH).transfer(pair , amountETH));\r\n        liquidity = IUniswapV2Pair(pair).mint(to);\r\n        if((msg.value - amountETH) > 0) { TransferHelper.safeTransferETH(msg.sender , msg.value - amountETH); }\r\n    }\r\n    /*\r\n        -> get pair contract\r\n        -> transfer LP token to contract\r\n        -> Burn LP token\r\n        -> Get amount of each to be payed back\r\n        -> sort tokens\r\n        -> check if the transaction is legitmate\r\n    */\r\n\r\n    function removeLiquidity(address tokenA , address tokenB , \r\n        uint liquidity , \r\n        uint amountAMin , uint amountBMin , \r\n        address to , \r\n        uint deadline\r\n    ) public override ensure(deadline) returns(uint amountA , uint amountB) {\r\n\r\n        address pair = IUniswapV2Factory(factory).getPair(tokenA , tokenB);\r\n        IUniswapV2Pair(pair).transferFrom(msg.sender , pair , liquidity);\r\n        (uint amount0 , uint amount1) = IUniswapV2Pair(pair).burn(to);\r\n        (address token0 , ) = UniswapV2Library.sortTokens(tokenA , tokenB);\r\n        (amountA, amountB) = tokenA == token0 ? (amount0 , amount1) : (amount1 , amount0);\r\n        require(amountA >= amountAMin, \"UniswapV2Router: INSUFFICIENT_A_AMOUNT\");\r\n        require(amountB >= amountBMin, \"UniswapV2Router: INSUFFICIENT_B_AMOUNT\");\r\n    }\r\n\r\n    function removeLiquidityETH(address token , \r\n        uint liquidity , \r\n        uint amountTokenMin , uint amountETHMin , \r\n        address to , \r\n        uint deadline\r\n    ) public override ensure(deadline) returns (uint amountToken , uint amountETH) {\r\n        (amountToken , amountETH) = removeLiquidity(token , WETH , liquidity , \r\n        amountTokenMin , amountETHMin , address(this) , deadline);        //transfer tokens to this contract itself\r\n        TransferHelper.safeTransfer(token , to , amountToken);\r\n        IWETH(WETH).withdraw(amountETH);\r\n        TransferHelper.safeTransferETH(to , amountETH);\r\n    }\r\n\r\n    function removeLiquidityWithPermit(\r\n        address tokenA , address tokenB,\r\n        uint liquidity ,\r\n        uint amountAMin , uint amountBMin ,\r\n        address to ,\r\n        uint deadline ,\r\n        bool approveMax , uint8 v , bytes32 r , bytes32 s\r\n    ) external override returns (uint amountA , uint amountB) {\r\n        address pair = UniswapV2Library.pairFor(factory , tokenA , tokenB);\r\n        //uint value = approveMax ? uint(-1) : liquidity;\r\n        IUniswapV2Pair(pair).permit(msg.sender , address(this) , liquidity , deadline , v , r , s);\r\n        (amountA , amountB) = removeLiquidity(tokenA , tokenB , liquidity , amountAMin , amountBMin , to , deadline);\r\n    }\r\n\r\n    function removeLiquidityETHWithPermit(\r\n        address token ,\r\n        uint liquidity ,\r\n        uint amountTokenMin , uint amountETHMin,\r\n        address to ,\r\n        uint deadline ,\r\n        bool approveMax , uint8 v , bytes32 r , bytes32 s\r\n    ) external override returns (uint amountToken , uint amountETH) {\r\n        address pair = UniswapV2Library.pairFor(factory , token , WETH);\r\n        IUniswapV2Pair(pair).permit(msg.sender , address(this) , liquidity , deadline , v , r , s);\r\n        (amountToken , amountETH) = removeLiquidityETH(token , liquidity , amountTokenMin , amountETHMin , to , deadline);\r\n    }\r\n\r\n    function _swap(uint[] memory amounts , address[] memory path , address _to) internal {\r\n        for(uint i = 0; i < path.length - 1; i++) {\r\n            (address input , address output) = (path[i] , path[i + 1]);\r\n            (address token0 , ) = UniswapV2Library.sortTokens(input , output);\r\n            uint amountOut = amounts[i + 1];\r\n            (uint amount0Out , uint amount1Out) = token0 == input ? (amountOut , uint(0)) : (uint(0) , amountOut);\r\n            address to = i < path.length - 2 ? IUniswapV2Factory(factory).getPair(output , path[i + 2]) : _to;\r\n            IUniswapV2Pair(IUniswapV2Factory(factory).getPair(input , output)).swap(\r\n                amount0Out , amount1Out , to , new bytes(0)\r\n            );\r\n        }\r\n    }\r\n\r\n    function swapExactTokensForTokens(\r\n        uint amountIn , uint amountOutMin ,\r\n        address[] calldata path ,  \r\n        address to , \r\n        uint deadline\r\n    ) external override ensure(deadline) returns(uint[] memory amounts) {\r\n        amounts = UniswapV2Library.getAmountsOut(factory , amountIn , path);\r\n        require(amounts[amounts.length - 1] >= amountOutMin , \"UniswapV2Router: INSUFFICIENT_OUTPUT_AMOUNT\");\r\n        TransferHelper.safeTransferFrom(\r\n            path[0] , msg.sender , UniswapV2Library.pairFor(factory , path[0] , path[1]) , amountIn);\r\n        _swap(amounts , path , to);\r\n    }\r\n\r\n    function getOutAmount(uint amountIn , address[] calldata path) external view returns(uint amount) {\r\n        uint[] memory amounts = UniswapV2Library.getAmountsOut(factory , amountIn , path);\r\n        amount = amounts[amounts.length - 1];\r\n    }\r\n\r\n    function swapTokensForExactTokens(\r\n        uint amountOut ,\r\n        uint amountInMax ,\r\n        address[] calldata path ,\r\n        address to ,\r\n        uint deadline\r\n    ) external override ensure(deadline) returns (uint[] memory amounts) {\r\n        amounts = UniswapV2Library.getAmountsIn(factory , amountOut , path);\r\n        require(amounts[0] <= amountInMax , \"UniswapV2Router: EXCESSIVE_INPUT_AMOUNT\");\r\n        TransferHelper.safeTransferFrom(\r\n            path[0] , msg.sender , UniswapV2Library.pairFor(factory , path[0] , path[1]) , amounts[0]\r\n        );\r\n        _swap(amounts , path , to);\r\n    }\r\n\r\n    function swapExactETHForTokens(uint amountOutMin , address[] calldata path , address to , uint deadline) external\r\n        override\r\n        payable\r\n        ensure(deadline)\r\n        returns (uint[] memory amounts)\r\n    {\r\n        require(path[0] == WETH , \"UniswapV2Router: INVALID_PATH\");\r\n        amounts = UniswapV2Library.getAmountsOut(factory , msg.value , path);\r\n        require(amounts[amounts.length - 1] >= amountOutMin , \"UniswapV2Router: INSUFFICIENT_OUTPUT_AMOUNT\");\r\n        IWETH(WETH).deposit{value: amounts[0]}();\r\n        assert(IWETH(WETH).transfer(UniswapV2Library.pairFor(factory , path[0] , path[1]) , amounts[0]));\r\n        _swap(amounts , path , to);\r\n    }\r\n    function swapTokensForExactETH(uint amountOut , uint amountInMax , address[] calldata path , address to , uint deadline)\r\n        external\r\n        override\r\n        ensure(deadline)\r\n        returns (uint[] memory amounts)\r\n    {\r\n        require(path[path.length - 1] == WETH , \"UniswapV2Router: INVALID_PATH\");\r\n        amounts = UniswapV2Library.getAmountsIn(factory , amountOut , path);\r\n        require(amounts[0] <= amountInMax , \"UniswapV2Router: EXCESSIVE_INPUT_AMOUNT\");\r\n        TransferHelper.safeTransferFrom(\r\n            path[0] , msg.sender , UniswapV2Library.pairFor(factory , path[0] , path[1]) , amounts[0]\r\n        );\r\n        _swap(amounts , path , address(this));\r\n        IWETH(WETH).withdraw(amounts[amounts.length - 1]);\r\n        TransferHelper.safeTransferETH(to , amounts[amounts.length - 1]);\r\n    }\r\n    function swapExactTokensForETH(uint amountIn , uint amountOutMin , address[] calldata path , address to , uint deadline)\r\n        external\r\n        override\r\n        ensure(deadline)\r\n        returns (uint[] memory amounts)\r\n    {\r\n        require(path[path.length - 1] == WETH , \"UniswapV2Router: INVALID_PATH\");\r\n        amounts = UniswapV2Library.getAmountsOut(factory , amountIn , path);\r\n        require(amounts[amounts.length - 1] >= amountOutMin , \"UniswapV2Router: INSUFFICIENT_OUTPUT_AMOUNT\");\r\n        TransferHelper.safeTransferFrom(\r\n            path[0] , msg.sender , UniswapV2Library.pairFor(factory , path[0] , path[1]) , amounts[0]\r\n        );\r\n        _swap(amounts , path , address(this));\r\n        IWETH(WETH).withdraw(amounts[amounts.length - 1]);\r\n        TransferHelper.safeTransferETH(to , amounts[amounts.length - 1]);\r\n    }\r\n    function swapETHForExactTokens(uint amountOut , address[] calldata path , address to , uint deadline)\r\n        external\r\n        override\r\n        payable\r\n        ensure(deadline)\r\n        returns (uint[] memory amounts)\r\n    {\r\n        require(path[0] == WETH , \"UniswapV2Router: INVALID_PATH\");\r\n        amounts = UniswapV2Library.getAmountsIn(factory , amountOut , path);\r\n        require(amounts[0] <= msg.value , \"UniswapV2Router: EXCESSIVE_INPUT_AMOUNT\");\r\n        IWETH(WETH).deposit{value: amounts[0]}();\r\n        assert(IWETH(WETH).transfer(UniswapV2Library.pairFor(factory , path[0] , path[1]) , amounts[0]));\r\n        _swap(amounts , path , to);\r\n        if (msg.value > amounts[0]) TransferHelper.safeTransferETH(msg.sender , msg.value - amounts[0]);\r\n    }\r\n\r\n        function quote(uint amountA, uint reserveA, uint reserveB) public pure virtual override returns (uint amountB) {\r\n        return UniswapV2Library.quote(amountA, reserveA, reserveB);\r\n    }\r\n\r\n    //Library functions for external use\r\n    function getAmountOut(uint amountIn, uint reserveIn, uint reserveOut)\r\n        public\r\n        pure\r\n        virtual\r\n        override\r\n        returns (uint amountOut)\r\n    {\r\n        return UniswapV2Library.getAmountOut(amountIn, reserveIn, reserveOut);\r\n    }\r\n\r\n    function getAmountIn(uint amountOut, uint reserveIn, uint reserveOut)\r\n        public\r\n        pure\r\n        virtual\r\n        override\r\n        returns (uint amountIn)\r\n    {\r\n        return UniswapV2Library.getAmountIn(amountOut, reserveIn, reserveOut);\r\n    }\r\n\r\n    function getAmountsOut(uint amountIn, address[] memory path)\r\n        public\r\n        view\r\n        virtual\r\n        override\r\n        returns (uint[] memory amounts)\r\n    {\r\n        return UniswapV2Library.getAmountsOut(factory, amountIn, path);\r\n    }\r\n\r\n    function getAmountsIn(uint amountOut, address[] memory path)\r\n        public\r\n        view\r\n        virtual\r\n        override\r\n        returns (uint[] memory amounts)\r\n    {\r\n        return UniswapV2Library.getAmountsIn(factory, amountOut, path);\r\n    }\r\n\r\n}",
  "sourcePath": "C:\\Users\\Asus\\Documents\\Web3\\uniswap\\smart_contracts\\contracts\\periphery\\Router.sol",
  "compiler": {
    "name": "solc",
    "version": "0.8.16+commit.07a7930e.Emscripten.clang"
  },
  "schemaVersion": "3.4.4",
  "updatedAt": "2022-08-12T10:56:09.051Z",
  "devdoc": {
    "kind": "dev",
    "methods": {},
    "version": 1
  },
  "userdoc": {
    "kind": "user",
    "methods": {},
    "version": 1
  }
}